{
  "_format": "hh-sol-artifact-1",
  "contractName": "EditorialBookPremium",
  "sourceName": "contracts/EditorialBookPremium.sol",
  "abi": [
    {
      "inputs": [
        {
          "internalType": "string",
          "name": "_name",
          "type": "string"
        },
        {
          "internalType": "string",
          "name": "_symbol",
          "type": "string"
        },
        {
          "internalType": "string",
          "name": "_uriPrefix",
          "type": "string"
        },
        {
          "internalType": "address[]",
          "name": "admins",
          "type": "address[]"
        }
      ],
      "stateMutability": "nonpayable",
      "type": "constructor"
    },
    {
      "anonymous": false,
      "inputs": [
        {
          "indexed": false,
          "internalType": "uint256",
          "name": "tokenId",
          "type": "uint256"
        }
      ],
      "name": "AddBook",
      "type": "event"
    },
    {
      "anonymous": false,
      "inputs": [
        {
          "indexed": true,
          "internalType": "address",
          "name": "owner",
          "type": "address"
        },
        {
          "indexed": true,
          "internalType": "address",
          "name": "approved",
          "type": "address"
        },
        {
          "indexed": true,
          "internalType": "uint256",
          "name": "tokenId",
          "type": "uint256"
        }
      ],
      "name": "Approval",
      "type": "event"
    },
    {
      "anonymous": false,
      "inputs": [
        {
          "indexed": true,
          "internalType": "address",
          "name": "owner",
          "type": "address"
        },
        {
          "indexed": true,
          "internalType": "address",
          "name": "operator",
          "type": "address"
        },
        {
          "indexed": false,
          "internalType": "bool",
          "name": "approved",
          "type": "bool"
        }
      ],
      "name": "ApprovalForAll",
      "type": "event"
    },
    {
      "anonymous": false,
      "inputs": [
        {
          "indexed": true,
          "internalType": "address",
          "name": "previousOwner",
          "type": "address"
        },
        {
          "indexed": true,
          "internalType": "address",
          "name": "newOwner",
          "type": "address"
        }
      ],
      "name": "OwnershipTransferred",
      "type": "event"
    },
    {
      "anonymous": false,
      "inputs": [
        {
          "indexed": false,
          "internalType": "address",
          "name": "account",
          "type": "address"
        }
      ],
      "name": "Paused",
      "type": "event"
    },
    {
      "anonymous": false,
      "inputs": [
        {
          "indexed": true,
          "internalType": "bytes32",
          "name": "role",
          "type": "bytes32"
        },
        {
          "indexed": true,
          "internalType": "bytes32",
          "name": "previousAdminRole",
          "type": "bytes32"
        },
        {
          "indexed": true,
          "internalType": "bytes32",
          "name": "newAdminRole",
          "type": "bytes32"
        }
      ],
      "name": "RoleAdminChanged",
      "type": "event"
    },
    {
      "anonymous": false,
      "inputs": [
        {
          "indexed": true,
          "internalType": "bytes32",
          "name": "role",
          "type": "bytes32"
        },
        {
          "indexed": true,
          "internalType": "address",
          "name": "account",
          "type": "address"
        },
        {
          "indexed": true,
          "internalType": "address",
          "name": "sender",
          "type": "address"
        }
      ],
      "name": "RoleGranted",
      "type": "event"
    },
    {
      "anonymous": false,
      "inputs": [
        {
          "indexed": true,
          "internalType": "bytes32",
          "name": "role",
          "type": "bytes32"
        },
        {
          "indexed": true,
          "internalType": "address",
          "name": "account",
          "type": "address"
        },
        {
          "indexed": true,
          "internalType": "address",
          "name": "sender",
          "type": "address"
        }
      ],
      "name": "RoleRevoked",
      "type": "event"
    },
    {
      "anonymous": false,
      "inputs": [
        {
          "indexed": true,
          "internalType": "address",
          "name": "from",
          "type": "address"
        },
        {
          "indexed": true,
          "internalType": "address",
          "name": "to",
          "type": "address"
        },
        {
          "indexed": true,
          "internalType": "uint256",
          "name": "tokenId",
          "type": "uint256"
        }
      ],
      "name": "Transfer",
      "type": "event"
    },
    {
      "anonymous": false,
      "inputs": [
        {
          "indexed": false,
          "internalType": "address",
          "name": "account",
          "type": "address"
        }
      ],
      "name": "Unpaused",
      "type": "event"
    },
    {
      "inputs": [],
      "name": "ADMIN_ROLE",
      "outputs": [
        {
          "internalType": "bytes32",
          "name": "",
          "type": "bytes32"
        }
      ],
      "stateMutability": "view",
      "type": "function"
    },
    {
      "inputs": [],
      "name": "DEFAULT_ADMIN_ROLE",
      "outputs": [
        {
          "internalType": "bytes32",
          "name": "",
          "type": "bytes32"
        }
      ],
      "stateMutability": "view",
      "type": "function"
    },
    {
      "inputs": [
        {
          "internalType": "address",
          "name": "newAdmin",
          "type": "address"
        }
      ],
      "name": "addAdmin",
      "outputs": [],
      "stateMutability": "nonpayable",
      "type": "function"
    },
    {
      "inputs": [
        {
          "internalType": "string",
          "name": "_hashJsonToken",
          "type": "string"
        }
      ],
      "name": "addBook",
      "outputs": [
        {
          "internalType": "uint256",
          "name": "",
          "type": "uint256"
        }
      ],
      "stateMutability": "nonpayable",
      "type": "function"
    },
    {
      "inputs": [
        {
          "internalType": "address",
          "name": "to",
          "type": "address"
        },
        {
          "internalType": "uint256",
          "name": "tokenId",
          "type": "uint256"
        }
      ],
      "name": "approve",
      "outputs": [],
      "stateMutability": "nonpayable",
      "type": "function"
    },
    {
      "inputs": [
        {
          "internalType": "address",
          "name": "owner",
          "type": "address"
        }
      ],
      "name": "balanceOf",
      "outputs": [
        {
          "internalType": "uint256",
          "name": "",
          "type": "uint256"
        }
      ],
      "stateMutability": "view",
      "type": "function"
    },
    {
      "inputs": [
        {
          "internalType": "uint256",
          "name": "",
          "type": "uint256"
        }
      ],
      "name": "bookData",
      "outputs": [
        {
          "internalType": "uint256",
          "name": "bookId",
          "type": "uint256"
        },
        {
          "internalType": "string",
          "name": "hashJsonToken",
          "type": "string"
        }
      ],
      "stateMutability": "view",
      "type": "function"
    },
    {
      "inputs": [
        {
          "internalType": "uint256",
          "name": "tokenId",
          "type": "uint256"
        }
      ],
      "name": "getApproved",
      "outputs": [
        {
          "internalType": "address",
          "name": "",
          "type": "address"
        }
      ],
      "stateMutability": "view",
      "type": "function"
    },
    {
      "inputs": [
        {
          "internalType": "bytes32",
          "name": "role",
          "type": "bytes32"
        }
      ],
      "name": "getRoleAdmin",
      "outputs": [
        {
          "internalType": "bytes32",
          "name": "",
          "type": "bytes32"
        }
      ],
      "stateMutability": "view",
      "type": "function"
    },
    {
      "inputs": [
        {
          "internalType": "bytes32",
          "name": "role",
          "type": "bytes32"
        },
        {
          "internalType": "address",
          "name": "account",
          "type": "address"
        }
      ],
      "name": "grantRole",
      "outputs": [],
      "stateMutability": "nonpayable",
      "type": "function"
    },
    {
      "inputs": [
        {
          "internalType": "bytes32",
          "name": "role",
          "type": "bytes32"
        },
        {
          "internalType": "address",
          "name": "account",
          "type": "address"
        }
      ],
      "name": "hasRole",
      "outputs": [
        {
          "internalType": "bool",
          "name": "",
          "type": "bool"
        }
      ],
      "stateMutability": "view",
      "type": "function"
    },
    {
      "inputs": [
        {
          "internalType": "address",
          "name": "addr",
          "type": "address"
        }
      ],
      "name": "isAdmin",
      "outputs": [
        {
          "internalType": "bool",
          "name": "",
          "type": "bool"
        }
      ],
      "stateMutability": "view",
      "type": "function"
    },
    {
      "inputs": [
        {
          "internalType": "address",
          "name": "owner",
          "type": "address"
        },
        {
          "internalType": "address",
          "name": "operator",
          "type": "address"
        }
      ],
      "name": "isApprovedForAll",
      "outputs": [
        {
          "internalType": "bool",
          "name": "",
          "type": "bool"
        }
      ],
      "stateMutability": "view",
      "type": "function"
    },
    {
      "inputs": [],
      "name": "lastBookId",
      "outputs": [
        {
          "internalType": "uint256",
          "name": "",
          "type": "uint256"
        }
      ],
      "stateMutability": "view",
      "type": "function"
    },
    {
      "inputs": [],
      "name": "name",
      "outputs": [
        {
          "internalType": "string",
          "name": "",
          "type": "string"
        }
      ],
      "stateMutability": "view",
      "type": "function"
    },
    {
      "inputs": [],
      "name": "owner",
      "outputs": [
        {
          "internalType": "address",
          "name": "",
          "type": "address"
        }
      ],
      "stateMutability": "view",
      "type": "function"
    },
    {
      "inputs": [
        {
          "internalType": "uint256",
          "name": "tokenId",
          "type": "uint256"
        }
      ],
      "name": "ownerOf",
      "outputs": [
        {
          "internalType": "address",
          "name": "",
          "type": "address"
        }
      ],
      "stateMutability": "view",
      "type": "function"
    },
    {
      "inputs": [],
      "name": "paused",
      "outputs": [
        {
          "internalType": "bool",
          "name": "",
          "type": "bool"
        }
      ],
      "stateMutability": "view",
      "type": "function"
    },
    {
      "inputs": [],
      "name": "renounceOwnership",
      "outputs": [],
      "stateMutability": "nonpayable",
      "type": "function"
    },
    {
      "inputs": [
        {
          "internalType": "bytes32",
          "name": "role",
          "type": "bytes32"
        },
        {
          "internalType": "address",
          "name": "account",
          "type": "address"
        }
      ],
      "name": "renounceRole",
      "outputs": [],
      "stateMutability": "nonpayable",
      "type": "function"
    },
    {
      "inputs": [
        {
          "internalType": "bytes32",
          "name": "role",
          "type": "bytes32"
        },
        {
          "internalType": "address",
          "name": "account",
          "type": "address"
        }
      ],
      "name": "revokeRole",
      "outputs": [],
      "stateMutability": "nonpayable",
      "type": "function"
    },
    {
      "inputs": [
        {
          "internalType": "address",
          "name": "from",
          "type": "address"
        },
        {
          "internalType": "address",
          "name": "to",
          "type": "address"
        },
        {
          "internalType": "uint256",
          "name": "tokenId",
          "type": "uint256"
        }
      ],
      "name": "safeTransferFrom",
      "outputs": [],
      "stateMutability": "nonpayable",
      "type": "function"
    },
    {
      "inputs": [
        {
          "internalType": "address",
          "name": "from",
          "type": "address"
        },
        {
          "internalType": "address",
          "name": "to",
          "type": "address"
        },
        {
          "internalType": "uint256",
          "name": "tokenId",
          "type": "uint256"
        },
        {
          "internalType": "bytes",
          "name": "data",
          "type": "bytes"
        }
      ],
      "name": "safeTransferFrom",
      "outputs": [],
      "stateMutability": "nonpayable",
      "type": "function"
    },
    {
      "inputs": [
        {
          "internalType": "address",
          "name": "operator",
          "type": "address"
        },
        {
          "internalType": "bool",
          "name": "approved",
          "type": "bool"
        }
      ],
      "name": "setApprovalForAll",
      "outputs": [],
      "stateMutability": "nonpayable",
      "type": "function"
    },
    {
      "inputs": [
        {
          "internalType": "string",
          "name": "_uriPrefix",
          "type": "string"
        }
      ],
      "name": "setUriPrefix",
      "outputs": [],
      "stateMutability": "nonpayable",
      "type": "function"
    },
    {
      "inputs": [
        {
          "internalType": "string",
          "name": "_uriSuffix",
          "type": "string"
        }
      ],
      "name": "setUriSuffix",
      "outputs": [],
      "stateMutability": "nonpayable",
      "type": "function"
    },
    {
      "inputs": [
        {
          "internalType": "bytes4",
          "name": "interfaceId",
          "type": "bytes4"
        }
      ],
      "name": "supportsInterface",
      "outputs": [
        {
          "internalType": "bool",
          "name": "",
          "type": "bool"
        }
      ],
      "stateMutability": "view",
      "type": "function"
    },
    {
      "inputs": [],
      "name": "symbol",
      "outputs": [
        {
          "internalType": "string",
          "name": "",
          "type": "string"
        }
      ],
      "stateMutability": "view",
      "type": "function"
    },
    {
      "inputs": [
        {
          "internalType": "uint256",
          "name": "_tokenId",
          "type": "uint256"
        }
      ],
      "name": "tokenURI",
      "outputs": [
        {
          "internalType": "string",
          "name": "",
          "type": "string"
        }
      ],
      "stateMutability": "view",
      "type": "function"
    },
    {
      "inputs": [
        {
          "internalType": "address",
          "name": "from",
          "type": "address"
        },
        {
          "internalType": "address",
          "name": "to",
          "type": "address"
        },
        {
          "internalType": "uint256",
          "name": "tokenId",
          "type": "uint256"
        }
      ],
      "name": "transferFrom",
      "outputs": [],
      "stateMutability": "nonpayable",
      "type": "function"
    },
    {
      "inputs": [
        {
          "internalType": "address",
          "name": "newOwner",
          "type": "address"
        }
      ],
      "name": "transferOwnership",
      "outputs": [],
      "stateMutability": "nonpayable",
      "type": "function"
    },
    {
      "inputs": [],
      "name": "uriPrefix",
      "outputs": [
        {
          "internalType": "string",
          "name": "",
          "type": "string"
        }
      ],
      "stateMutability": "view",
      "type": "function"
    },
    {
      "inputs": [],
      "name": "uriSuffix",
      "outputs": [
        {
          "internalType": "string",
          "name": "",
          "type": "string"
        }
      ],
      "stateMutability": "view",
      "type": "function"
    }
  ],
  "bytecode": "0x60a06040819052600060808190526200001b91600c9162000322565b5060408051808201909152600580825264173539b7b760d91b60209092019182526200004a91600d9162000322565b503480156200005857600080fd5b5060405162002995380380620029958339810160408190526200007b91620004a6565b8351849084906200009490600090602085019062000322565b508051620000aa90600190602084019062000322565b505050620000c7620000c16200018060201b60201c565b62000184565b6007805460ff60a01b191690556001600855600a80546001600160a01b0319163317905560005b815181101562000148576200013560008051602062002975833981519152838381518110620001215762000121620005e2565b6020026020010151620001d660201b60201c565b6200014081620005f8565b9050620000ee565b5080516200016b576200016b6000805160206200297583398151915233620001d6565b6200017682620001e6565b505050506200065f565b3390565b600780546001600160a01b038381166001600160a01b0319831681179093556040519116919082907f8be0079c531659141344cd1fd0a4f28419497f9722a3daafe3b4186f6b6457e090600090a35050565b620001e282826200027e565b5050565b3360009081527f5e421a728e346ccaf4d82870ec53d59217a30d3483c6688054a2a67760f2138c602052604090205460ff16620002695760405162461bcd60e51b815260206004820152601660248201527f43616c6c6572206973206e6f7420616e2061646d696e00000000000000000000604482015260640160405180910390fd5b8051620001e290600c90602084019062000322565b60008281526009602090815260408083206001600160a01b038516845290915290205460ff16620001e25760008281526009602090815260408083206001600160a01b03851684529091529020805460ff19166001179055620002de3390565b6001600160a01b0316816001600160a01b0316837f2f8788117e7eff1d82e926ec794901d17c78024a50270940304540a733656f0d60405160405180910390a45050565b828054620003309062000622565b90600052602060002090601f0160209004810192826200035457600085556200039f565b82601f106200036f57805160ff19168380011785556200039f565b828001600101855582156200039f579182015b828111156200039f57825182559160200191906001019062000382565b50620003ad929150620003b1565b5090565b5b80821115620003ad5760008155600101620003b2565b634e487b7160e01b600052604160045260246000fd5b604051601f8201601f191681016001600160401b0381118282101715620004095762000409620003c8565b604052919050565b600082601f8301126200042357600080fd5b81516001600160401b038111156200043f576200043f620003c8565b602062000455601f8301601f19168201620003de565b82815285828487010111156200046a57600080fd5b60005b838110156200048a5785810183015182820184015282016200046d565b838111156200049c5760008385840101525b5095945050505050565b60008060008060808587031215620004bd57600080fd5b84516001600160401b0380821115620004d557600080fd5b620004e38883890162000411565b9550602091508187015181811115620004fb57600080fd5b6200050989828a0162000411565b9550506040870151818111156200051f57600080fd5b6200052d89828a0162000411565b9450506060870151818111156200054357600080fd5b8701601f810189136200055557600080fd5b8051828111156200056a576200056a620003c8565b8060051b92506200057d848401620003de565b818152928201840192848101908b8511156200059857600080fd5b928501925b84841015620005d257835192506001600160a01b0383168314620005c15760008081fd5b82825292850192908501906200059d565b989b979a50959850505050505050565b634e487b7160e01b600052603260045260246000fd5b60006000198214156200061b57634e487b7160e01b600052601160045260246000fd5b5060010190565b600181811c908216806200063757607f821691505b602082108114156200065957634e487b7160e01b600052602260045260246000fd5b50919050565b612306806200066f6000396000f3fe608060405234801561001057600080fd5b50600436106101fb5760003560e01c80636352211e1161011a57806395d89b41116100ad578063b88d4fde1161007c578063b88d4fde1461042e578063c87b56dd14610441578063d547741f14610454578063e985e9c514610467578063f2fde38b146104a357600080fd5b806395d89b41146103ea578063a217fddf146103f2578063a22cb465146103fa578063b58c2b671461040d57600080fd5b806375b238fc116100e957806375b238fc1461039e5780637ec4a659146103b35780638da5cb5b146103c657806391d14854146103d757600080fd5b80636352211e1461035d578063704802751461037057806370a0823114610383578063715018a61461039657600080fd5b80632e1de90e1161019257806342842e0e1161016157806342842e0e146103285780635503a0e81461033b5780635c975abb1461034357806362b99ad41461035557600080fd5b80632e1de90e146102e75780632f2ff15d146102ef57806336568abe146103025780633bc5f48a1461031557600080fd5b806316ba10e0116101ce57806316ba10e01461027d57806323b872dd14610290578063248a9ca3146102a357806324d7806c146102d457600080fd5b806301ffc9a71461020057806306fdde0314610228578063081812fc1461023d578063095ea7b314610268575b600080fd5b61021361020e366004611b91565b6104b6565b60405190151581526020015b60405180910390f35b6102306104c7565b60405161021f9190611c06565b61025061024b366004611c19565b610559565b6040516001600160a01b03909116815260200161021f565b61027b610276366004611c4e565b610580565b005b61027b61028b366004611d04565b61069b565b61027b61029e366004611d4d565b6106e6565b6102c66102b1366004611c19565b60009081526009602052604090206001015490565b60405190815260200161021f565b6102136102e2366004611d89565b610717565b6102c6610731565b61027b6102fd366004611da4565b610741565b61027b610310366004611da4565b610766565b6102c6610323366004611dd0565b6107e0565b61027b610336366004611d4d565b6108fb565b610230610916565b600754600160a01b900460ff16610213565b6102306109a4565b61025061036b366004611c19565b6109b1565b61027b61037e366004611d89565b610a11565b6102c6610391366004611d89565b610a72565b61027b610af8565b6102c66000805160206122b183398151915281565b61027b6103c1366004611d04565b610b0c565b6007546001600160a01b0316610250565b6102136103e5366004611da4565b610b53565b610230610b7e565b6102c6600081565b61027b610408366004611e42565b610b8d565b61042061041b366004611c19565b610b98565b60405161021f929190611e7e565b61027b61043c366004611e97565b610c3d565b61023061044f366004611c19565b610c75565b61027b610462366004611da4565b610d53565b610213610475366004611f13565b6001600160a01b03918216600090815260056020908152604080832093909416825291909152205460ff1690565b61027b6104b1366004611d89565b610d78565b60006104c182610dee565b92915050565b6060600080546104d690611f3d565b80601f016020809104026020016040519081016040528092919081815260200182805461050290611f3d565b801561054f5780601f106105245761010080835404028352916020019161054f565b820191906000526020600020905b81548152906001019060200180831161053257829003601f168201915b5050505050905090565b600061056482610e13565b506000908152600460205260409020546001600160a01b031690565b600061058b826109b1565b9050806001600160a01b0316836001600160a01b031614156105fe5760405162461bcd60e51b815260206004820152602160248201527f4552433732313a20617070726f76616c20746f2063757272656e74206f776e656044820152603960f91b60648201526084015b60405180910390fd5b336001600160a01b038216148061061a575061061a8133610475565b61068c5760405162461bcd60e51b815260206004820152603d60248201527f4552433732313a20617070726f76652063616c6c6572206973206e6f7420746f60448201527f6b656e206f776e6572206f7220617070726f76656420666f7220616c6c00000060648201526084016105f5565b6106968383610e72565b505050565b6106b36000805160206122b183398151915233610b53565b6106cf5760405162461bcd60e51b81526004016105f590611f78565b80516106e290600d906020840190611ae2565b5050565b6106f03382610ee0565b61070c5760405162461bcd60e51b81526004016105f590611fa8565b610696838383610f5f565b60006104c16000805160206122b183398151915283610b53565b600061073c600b5490565b905090565b60008281526009602052604090206001015461075c816110d0565b61069683836110da565b6001600160a01b03811633146107d65760405162461bcd60e51b815260206004820152602f60248201527f416363657373436f6e74726f6c3a2063616e206f6e6c792072656e6f756e636560448201526e103937b632b9903337b91039b2b63360891b60648201526084016105f5565b6106e28282611160565b60006107ea6111c7565b6108026000805160206122b183398151915233610b53565b61081e5760405162461bcd60e51b81526004016105f590611f78565b61082c600b80546001019055565b6000610837600b5490565b90506108433382611221565b604051806040016040528082815260200185858080601f0160208091040260200160405190810160405280939291908181526020018383808284376000920182905250939094525050838152600e60209081526040909120835181558382015180519193506108b9926001850192910190611ae2565b50506040518281527fccad64e1e499d14597e0c821aeabc16aca1be5164ce01528acaa7cc200f9868a915060200160405180910390a190506104c16001600855565b61069683838360405180602001604052806000815250610c3d565b600d805461092390611f3d565b80601f016020809104026020016040519081016040528092919081815260200182805461094f90611f3d565b801561099c5780601f106109715761010080835404028352916020019161099c565b820191906000526020600020905b81548152906001019060200180831161097f57829003601f168201915b505050505081565b600c805461092390611f3d565b6000818152600260205260408120546001600160a01b0316806104c15760405162461bcd60e51b8152602060048201526018602482015277115490cdcc8c4e881a5b9d985b1a59081d1bdad95b88125160421b60448201526064016105f5565b610a196111c7565b610a316000805160206122b183398151915233610b53565b610a4d5760405162461bcd60e51b81526004016105f590611f78565b610a656000805160206122b1833981519152826113ba565b610a6f6001600855565b50565b60006001600160a01b038216610adc5760405162461bcd60e51b815260206004820152602960248201527f4552433732313a2061646472657373207a65726f206973206e6f7420612076616044820152683634b21037bbb732b960b91b60648201526084016105f5565b506001600160a01b031660009081526003602052604090205490565b610b006113c4565b610b0a600061141e565b565b610b246000805160206122b183398151915233610b53565b610b405760405162461bcd60e51b81526004016105f590611f78565b80516106e290600c906020840190611ae2565b60009182526009602090815260408084206001600160a01b0393909316845291905290205460ff1690565b6060600180546104d690611f3d565b6106e2338383611470565b600e6020526000908152604090208054600182018054919291610bba90611f3d565b80601f0160208091040260200160405190810160405280929190818152602001828054610be690611f3d565b8015610c335780601f10610c0857610100808354040283529160200191610c33565b820191906000526020600020905b815481529060010190602001808311610c1657829003601f168201915b5050505050905082565b610c473383610ee0565b610c635760405162461bcd60e51b81526004016105f590611fa8565b610c6f8484848461153f565b50505050565b6000818152600260205260409020546060906001600160a01b0316610cf45760405162461bcd60e51b815260206004820152602f60248201527f4552433732314d657461646174613a2055524920717565727920666f72206e6f60448201526e3732bc34b9ba32b73a103a37b5b2b760891b60648201526084016105f5565b6000610cfe611572565b90506000815111610d1e5760405180602001604052806000815250610d4c565b80610d2884611581565b600d604051602001610d3c93929190611ff5565b6040516020818303038152906040525b9392505050565b600082815260096020526040902060010154610d6e816110d0565b6106968383611160565b610d806113c4565b6001600160a01b038116610de55760405162461bcd60e51b815260206004820152602660248201527f4f776e61626c653a206e6577206f776e657220697320746865207a65726f206160448201526564647265737360d01b60648201526084016105f5565b610a6f8161141e565b60006001600160e01b03198216637965db0b60e01b14806104c157506104c18261161e565b6000818152600260205260409020546001600160a01b0316610a6f5760405162461bcd60e51b8152602060048201526018602482015277115490cdcc8c4e881a5b9d985b1a59081d1bdad95b88125160421b60448201526064016105f5565b600081815260046020526040902080546001600160a01b0319166001600160a01b0384169081179091558190610ea7826109b1565b6001600160a01b03167f8c5be1e5ebec7d5bd14f71427d1e84f3dd0314c0f7b2291e5b200ac8c7c3b92560405160405180910390a45050565b600080610eec836109b1565b9050806001600160a01b0316846001600160a01b03161480610f3357506001600160a01b0380821660009081526005602090815260408083209388168352929052205460ff165b80610f575750836001600160a01b0316610f4c84610559565b6001600160a01b0316145b949350505050565b826001600160a01b0316610f72826109b1565b6001600160a01b031614610f985760405162461bcd60e51b81526004016105f5906120b9565b6001600160a01b038216610ffa5760405162461bcd60e51b8152602060048201526024808201527f4552433732313a207472616e7366657220746f20746865207a65726f206164646044820152637265737360e01b60648201526084016105f5565b611007838383600161166e565b826001600160a01b031661101a826109b1565b6001600160a01b0316146110405760405162461bcd60e51b81526004016105f5906120b9565b600081815260046020908152604080832080546001600160a01b03199081169091556001600160a01b0387811680865260038552838620805460001901905590871680865283862080546001019055868652600290945282852080549092168417909155905184937fddf252ad1be2c89b69c2b068fc378daa952ba7f163c4a11628f55a4df523b3ef91a4505050565b610a6f81336116f6565b6110e48282610b53565b6106e25760008281526009602090815260408083206001600160a01b03851684529091529020805460ff1916600117905561111c3390565b6001600160a01b0316816001600160a01b0316837f2f8788117e7eff1d82e926ec794901d17c78024a50270940304540a733656f0d60405160405180910390a45050565b61116a8282610b53565b156106e25760008281526009602090815260408083206001600160a01b0385168085529252808320805460ff1916905551339285917ff6391f5c32d9c69d2a47ea670b442974b53935d1edc7fd64eb21e047a839171b9190a45050565b6002600854141561121a5760405162461bcd60e51b815260206004820152601f60248201527f5265656e7472616e637947756172643a207265656e7472616e742063616c6c0060448201526064016105f5565b6002600855565b6001600160a01b0382166112775760405162461bcd60e51b815260206004820181905260248201527f4552433732313a206d696e7420746f20746865207a65726f206164647265737360448201526064016105f5565b6000818152600260205260409020546001600160a01b0316156112dc5760405162461bcd60e51b815260206004820152601c60248201527f4552433732313a20746f6b656e20616c7265616479206d696e7465640000000060448201526064016105f5565b6112ea60008383600161166e565b6000818152600260205260409020546001600160a01b03161561134f5760405162461bcd60e51b815260206004820152601c60248201527f4552433732313a20746f6b656e20616c7265616479206d696e7465640000000060448201526064016105f5565b6001600160a01b038216600081815260036020908152604080832080546001019055848352600290915280822080546001600160a01b0319168417905551839291907fddf252ad1be2c89b69c2b068fc378daa952ba7f163c4a11628f55a4df523b3ef908290a45050565b6106e282826110da565b6007546001600160a01b03163314610b0a5760405162461bcd60e51b815260206004820181905260248201527f4f776e61626c653a2063616c6c6572206973206e6f7420746865206f776e657260448201526064016105f5565b600780546001600160a01b038381166001600160a01b0319831681179093556040519116919082907f8be0079c531659141344cd1fd0a4f28419497f9722a3daafe3b4186f6b6457e090600090a35050565b816001600160a01b0316836001600160a01b031614156114d25760405162461bcd60e51b815260206004820152601960248201527f4552433732313a20617070726f766520746f2063616c6c65720000000000000060448201526064016105f5565b6001600160a01b03838116600081815260056020908152604080832094871680845294825291829020805460ff191686151590811790915591519182527f17307eab39ab6107e8899845ad3d59bd9653f200f220920489ca2b5937696c31910160405180910390a3505050565b61154a848484610f5f565b6115568484848461174f565b610c6f5760405162461bcd60e51b81526004016105f5906120fe565b6060600c80546104d690611f3d565b6060600061158e8361185c565b600101905060008167ffffffffffffffff8111156115ae576115ae611c78565b6040519080825280601f01601f1916602001820160405280156115d8576020820181803683370190505b5090508181016020015b600019016f181899199a1a9b1b9c1cb0b131b232b360811b600a86061a8153600a850494508461161157611616565b6115e2565b509392505050565b60006001600160e01b031982166380ac58cd60e01b148061164f57506001600160e01b03198216635b5e139f60e01b145b806104c157506301ffc9a760e01b6001600160e01b03198316146104c1565b6001811115610c6f576001600160a01b038416156116b4576001600160a01b038416600090815260036020526040812080548392906116ae908490612166565b90915550505b6001600160a01b03831615610c6f576001600160a01b038316600090815260036020526040812080548392906116eb90849061217d565b909155505050505050565b6117008282610b53565b6106e25761170d81611934565b611718836020611946565b604051602001611729929190612195565b60408051601f198184030181529082905262461bcd60e51b82526105f591600401611c06565b60006001600160a01b0384163b1561185157604051630a85bd0160e11b81526001600160a01b0385169063150b7a029061179390339089908890889060040161220a565b602060405180830381600087803b1580156117ad57600080fd5b505af19250505080156117dd575060408051601f3d908101601f191682019092526117da91810190612247565b60015b611837573d80801561180b576040519150601f19603f3d011682016040523d82523d6000602084013e611810565b606091505b50805161182f5760405162461bcd60e51b81526004016105f5906120fe565b805181602001fd5b6001600160e01b031916630a85bd0160e11b149050610f57565b506001949350505050565b60008072184f03e93ff9f4daa797ed6e38ed64bf6a1f0160401b831061189b5772184f03e93ff9f4daa797ed6e38ed64bf6a1f0160401b830492506040015b6d04ee2d6d415b85acef810000000083106118c7576d04ee2d6d415b85acef8100000000830492506020015b662386f26fc1000083106118e557662386f26fc10000830492506010015b6305f5e10083106118fd576305f5e100830492506008015b612710831061191157612710830492506004015b60648310611923576064830492506002015b600a83106104c15760010192915050565b60606104c16001600160a01b03831660145b60606000611955836002612264565b61196090600261217d565b67ffffffffffffffff81111561197857611978611c78565b6040519080825280601f01601f1916602001820160405280156119a2576020820181803683370190505b509050600360fc1b816000815181106119bd576119bd612283565b60200101906001600160f81b031916908160001a905350600f60fb1b816001815181106119ec576119ec612283565b60200101906001600160f81b031916908160001a9053506000611a10846002612264565b611a1b90600161217d565b90505b6001811115611a93576f181899199a1a9b1b9c1cb0b131b232b360811b85600f1660108110611a4f57611a4f612283565b1a60f81b828281518110611a6557611a65612283565b60200101906001600160f81b031916908160001a90535060049490941c93611a8c81612299565b9050611a1e565b508315610d4c5760405162461bcd60e51b815260206004820181905260248201527f537472696e67733a20686578206c656e67746820696e73756666696369656e7460448201526064016105f5565b828054611aee90611f3d565b90600052602060002090601f016020900481019282611b105760008555611b56565b82601f10611b2957805160ff1916838001178555611b56565b82800160010185558215611b56579182015b82811115611b56578251825591602001919060010190611b3b565b50611b62929150611b66565b5090565b5b80821115611b625760008155600101611b67565b6001600160e01b031981168114610a6f57600080fd5b600060208284031215611ba357600080fd5b8135610d4c81611b7b565b60005b83811015611bc9578181015183820152602001611bb1565b83811115610c6f5750506000910152565b60008151808452611bf2816020860160208601611bae565b601f01601f19169290920160200192915050565b602081526000610d4c6020830184611bda565b600060208284031215611c2b57600080fd5b5035919050565b80356001600160a01b0381168114611c4957600080fd5b919050565b60008060408385031215611c6157600080fd5b611c6a83611c32565b946020939093013593505050565b634e487b7160e01b600052604160045260246000fd5b600067ffffffffffffffff80841115611ca957611ca9611c78565b604051601f8501601f19908116603f01168101908282118183101715611cd157611cd1611c78565b81604052809350858152868686011115611cea57600080fd5b858560208301376000602087830101525050509392505050565b600060208284031215611d1657600080fd5b813567ffffffffffffffff811115611d2d57600080fd5b8201601f81018413611d3e57600080fd5b610f5784823560208401611c8e565b600080600060608486031215611d6257600080fd5b611d6b84611c32565b9250611d7960208501611c32565b9150604084013590509250925092565b600060208284031215611d9b57600080fd5b610d4c82611c32565b60008060408385031215611db757600080fd5b82359150611dc760208401611c32565b90509250929050565b60008060208385031215611de357600080fd5b823567ffffffffffffffff80821115611dfb57600080fd5b818501915085601f830112611e0f57600080fd5b813581811115611e1e57600080fd5b866020828501011115611e3057600080fd5b60209290920196919550909350505050565b60008060408385031215611e5557600080fd5b611e5e83611c32565b915060208301358015158114611e7357600080fd5b809150509250929050565b828152604060208201526000610f576040830184611bda565b60008060008060808587031215611ead57600080fd5b611eb685611c32565b9350611ec460208601611c32565b925060408501359150606085013567ffffffffffffffff811115611ee757600080fd5b8501601f81018713611ef857600080fd5b611f0787823560208401611c8e565b91505092959194509250565b60008060408385031215611f2657600080fd5b611f2f83611c32565b9150611dc760208401611c32565b600181811c90821680611f5157607f821691505b60208210811415611f7257634e487b7160e01b600052602260045260246000fd5b50919050565b60208082526016908201527521b0b63632b91034b9903737ba1030b71030b236b4b760511b604082015260600190565b6020808252602d908201527f4552433732313a2063616c6c6572206973206e6f7420746f6b656e206f776e6560408201526c1c881bdc88185c1c1c9bdd9959609a1b606082015260800190565b6000845160206120088285838a01611bae565b85519184019161201b8184848a01611bae565b8554920191600090600181811c908083168061203857607f831692505b85831081141561205657634e487b7160e01b85526022600452602485fd5b80801561206a576001811461207b576120a8565b60ff198516885283880195506120a8565b60008b81526020902060005b858110156120a05781548a820152908401908801612087565b505083880195505b50939b9a5050505050505050505050565b60208082526025908201527f4552433732313a207472616e736665722066726f6d20696e636f72726563742060408201526437bbb732b960d91b606082015260800190565b60208082526032908201527f4552433732313a207472616e7366657220746f206e6f6e20455243373231526560408201527131b2b4bb32b91034b6b83632b6b2b73a32b960711b606082015260800190565b634e487b7160e01b600052601160045260246000fd5b60008282101561217857612178612150565b500390565b6000821982111561219057612190612150565b500190565b7f416363657373436f6e74726f6c3a206163636f756e74200000000000000000008152600083516121cd816017850160208801611bae565b7001034b99036b4b9b9b4b733903937b6329607d1b60179184019182015283516121fe816028840160208801611bae565b01602801949350505050565b6001600160a01b038581168252841660208201526040810183905260806060820181905260009061223d90830184611bda565b9695505050505050565b60006020828403121561225957600080fd5b8151610d4c81611b7b565b600081600019048311821515161561227e5761227e612150565b500290565b634e487b7160e01b600052603260045260246000fd5b6000816122a8576122a8612150565b50600019019056fea49807205ce4d355092ef5a8a18f56e8913cf4a201fbe287825b095693c21775a2646970667358221220115885155115b29c1e6a5902ef5181a7e451cdb91806762ef6c356c60cf47fb464736f6c63430008090033a49807205ce4d355092ef5a8a18f56e8913cf4a201fbe287825b095693c21775",
  "linkReferences": {},
  "deployedLinkReferences": {}
}